{
  "contractName": "Crafty",
  "abi": [
    {
      "constant": true,
      "inputs": [],
      "name": "owner",
      "outputs": [
        {
          "name": "",
          "type": "address"
        }
      ],
      "payable": false,
      "stateMutability": "view",
      "type": "function"
    },
    {
      "constant": false,
      "inputs": [
        {
          "name": "newOwner",
          "type": "address"
        }
      ],
      "name": "transferOwnership",
      "outputs": [],
      "payable": false,
      "stateMutability": "nonpayable",
      "type": "function"
    },
    {
      "anonymous": false,
      "inputs": [
        {
          "indexed": true,
          "name": "previousOwner",
          "type": "address"
        },
        {
          "indexed": true,
          "name": "newOwner",
          "type": "address"
        }
      ],
      "name": "OwnershipTransferred",
      "type": "event"
    },
    {
      "constant": true,
      "inputs": [
        {
          "name": "name",
          "type": "string"
        }
      ],
      "name": "getCraftable",
      "outputs": [
        {
          "name": "",
          "type": "address"
        }
      ],
      "payable": false,
      "stateMutability": "view",
      "type": "function"
    },
    {
      "constant": false,
      "inputs": [
        {
          "name": "name",
          "type": "string"
        }
      ],
      "name": "craft",
      "outputs": [],
      "payable": false,
      "stateMutability": "nonpayable",
      "type": "function"
    },
    {
      "constant": true,
      "inputs": [
        {
          "name": "name",
          "type": "string"
        }
      ],
      "name": "getAmount",
      "outputs": [
        {
          "name": "",
          "type": "uint256"
        }
      ],
      "payable": false,
      "stateMutability": "view",
      "type": "function"
    },
    {
      "constant": false,
      "inputs": [
        {
          "name": "name",
          "type": "string"
        }
      ],
      "name": "addCraftable",
      "outputs": [],
      "payable": false,
      "stateMutability": "nonpayable",
      "type": "function"
    },
    {
      "constant": false,
      "inputs": [
        {
          "name": "resultName",
          "type": "string"
        },
        {
          "name": "ingredientName",
          "type": "string"
        },
        {
          "name": "amountNeeded",
          "type": "uint256"
        }
      ],
      "name": "addIngredient",
      "outputs": [],
      "payable": false,
      "stateMutability": "nonpayable",
      "type": "function"
    }
  ],
  "bytecode": "0x6060604052336000806101000a81548173ffffffffffffffffffffffffffffffffffffffff021916908373ffffffffffffffffffffffffffffffffffffffff1602179055506128b5806100536000396000f300606060405260043610610083576000357c0100000000000000000000000000000000000000000000000000000000900463ffffffff1680634d7690c3146100885780636ae63bad146101315780636b750b931461018e57806370558eab146101eb5780638da5cb5b14610288578063e35cf0ca146102dd578063f2fde38b1461034e575b600080fd5b341561009357600080fd5b61012f600480803590602001908201803590602001908080601f0160208091040260200160405190810160405280939291908181526020018383808284378201915050505050509190803590602001908201803590602001908080601f01602080910402602001604051908101604052809392919081815260200183838082843782019150505050505091908035906020019091905050610387565b005b341561013c57600080fd5b61018c600480803590602001908201803590602001908080601f01602080910402602001604051908101604052809392919081815260200183838082843782019150505050505091905050610593565b005b341561019957600080fd5b6101e9600480803590602001908201803590602001908080601f0160208091040260200160405190810160405280939291908181526020018383808284378201915050505050509190505061092c565b005b34156101f657600080fd5b610246600480803590602001908201803590602001908080601f01602080910402602001604051908101604052809392919081815260200183838082843782019150505050505091905050610b17565b604051808273ffffffffffffffffffffffffffffffffffffffff1673ffffffffffffffffffffffffffffffffffffffff16815260200191505060405180910390f35b341561029357600080fd5b61029b610c72565b604051808273ffffffffffffffffffffffffffffffffffffffff1673ffffffffffffffffffffffffffffffffffffffff16815260200191505060405180910390f35b34156102e857600080fd5b610338600480803590602001908201803590602001908080601f01602080910402602001604051908101604052809392919081815260200183838082843782019150505050505091905050610c97565b6040518082815260200191505060405180910390f35b341561035957600080fd5b610385600480803573ffffffffffffffffffffffffffffffffffffffff16906020019091905050610d66565b005b6000806000809054906101000a900473ffffffffffffffffffffffffffffffffffffffff1673ffffffffffffffffffffffffffffffffffffffff163373ffffffffffffffffffffffffffffffffffffffff161415156103e557600080fd5b836040518082805190602001908083835b60208310151561041b57805182526020820191506020810190506020830392506103f6565b6001836020036101000a038019825116818451168082178552505050505050905001915050604051809103902060001916856040518082805190602001908083835b602083101515610482578051825260208201915060208101905060208303925061045d565b6001836020036101000a038019825116818451168082178552505050505050905001915050604051809103902060001916141515156104c057600080fd5b6104c985610b17565b91506104d484610b17565b90508173ffffffffffffffffffffffffffffffffffffffff166350b565e782856040518363ffffffff167c0100000000000000000000000000000000000000000000000000000000028152600401808373ffffffffffffffffffffffffffffffffffffffff1673ffffffffffffffffffffffffffffffffffffffff16815260200182815260200192505050600060405180830381600087803b151561057857600080fd5b6102c65a03f1151561058957600080fd5b5050505050505050565b6000806000806000806105a587610b17565b95503394508573ffffffffffffffffffffffffffffffffffffffff1663ee1429f56000604051602001526040518163ffffffff167c0100000000000000000000000000000000000000000000000000000000028152600401602060405180830381600087803b151561061657600080fd5b6102c65a03f1151561062757600080fd5b505050604051805190509350600092505b8383101561086c578573ffffffffffffffffffffffffffffffffffffffff1663b1f60dee846000604051604001526040518263ffffffff167c0100000000000000000000000000000000000000000000000000000000028152600401808281526020019150506040805180830381600087803b15156106b657600080fd5b6102c65a03f115156106c757600080fd5b505050604051805190602001805190508092508193505050808273ffffffffffffffffffffffffffffffffffffffff166370a08231876000604051602001526040518263ffffffff167c0100000000000000000000000000000000000000000000000000000000028152600401808273ffffffffffffffffffffffffffffffffffffffff1673ffffffffffffffffffffffffffffffffffffffff168152602001915050602060405180830381600087803b151561078357600080fd5b6102c65a03f1151561079457600080fd5b50505060405180519050101515156107ab57600080fd5b8173ffffffffffffffffffffffffffffffffffffffff16639dc29fac86836040518363ffffffff167c0100000000000000000000000000000000000000000000000000000000028152600401808373ffffffffffffffffffffffffffffffffffffffff1673ffffffffffffffffffffffffffffffffffffffff16815260200182815260200192505050600060405180830381600087803b151561084d57600080fd5b6102c65a03f1151561085e57600080fd5b505050826001019250610638565b8573ffffffffffffffffffffffffffffffffffffffff166340c10f198660016040518363ffffffff167c0100000000000000000000000000000000000000000000000000000000028152600401808373ffffffffffffffffffffffffffffffffffffffff1673ffffffffffffffffffffffffffffffffffffffff16815260200182815260200192505050600060405180830381600087803b151561090f57600080fd5b6102c65a03f1151561092057600080fd5b50505050505050505050565b6000809054906101000a900473ffffffffffffffffffffffffffffffffffffffff1673ffffffffffffffffffffffffffffffffffffffff163373ffffffffffffffffffffffffffffffffffffffff1614151561098757600080fd5b600073ffffffffffffffffffffffffffffffffffffffff166001826040518082805190602001908083835b6020831015156109d757805182526020820191506020810190506020830392506109b2565b6001836020036101000a038019825116818451168082178552505050505050905001915050908152602001604051809103902060009054906101000a900473ffffffffffffffffffffffffffffffffffffffff1673ffffffffffffffffffffffffffffffffffffffff16141515610a4d57600080fd5b610a55610ebb565b604051809103906000f0801515610a6b57600080fd5b6001826040518082805190602001908083835b602083101515610aa35780518252602082019150602081019050602083039250610a7e565b6001836020036101000a038019825116818451168082178552505050505050905001915050908152602001604051809103902060006101000a81548173ffffffffffffffffffffffffffffffffffffffff021916908373ffffffffffffffffffffffffffffffffffffffff16021790555050565b60008073ffffffffffffffffffffffffffffffffffffffff166001836040518082805190602001908083835b602083101515610b685780518252602082019150602081019050602083039250610b43565b6001836020036101000a038019825116818451168082178552505050505050905001915050908152602001604051809103902060009054906101000a900473ffffffffffffffffffffffffffffffffffffffff1673ffffffffffffffffffffffffffffffffffffffff1614151515610bdf57600080fd5b6001826040518082805190602001908083835b602083101515610c175780518252602082019150602081019050602083039250610bf2565b6001836020036101000a038019825116818451168082178552505050505050905001915050908152602001604051809103902060009054906101000a900473ffffffffffffffffffffffffffffffffffffffff169050919050565b6000809054906101000a900473ffffffffffffffffffffffffffffffffffffffff1681565b6000610ca282610b17565b73ffffffffffffffffffffffffffffffffffffffff166370a08231336000604051602001526040518263ffffffff167c0100000000000000000000000000000000000000000000000000000000028152600401808273ffffffffffffffffffffffffffffffffffffffff1673ffffffffffffffffffffffffffffffffffffffff168152602001915050602060405180830381600087803b1515610d4457600080fd5b6102c65a03f11515610d5557600080fd5b505050604051805190509050919050565b6000809054906101000a900473ffffffffffffffffffffffffffffffffffffffff1673ffffffffffffffffffffffffffffffffffffffff163373ffffffffffffffffffffffffffffffffffffffff16141515610dc157600080fd5b600073ffffffffffffffffffffffffffffffffffffffff168173ffffffffffffffffffffffffffffffffffffffff1614151515610dfd57600080fd5b8073ffffffffffffffffffffffffffffffffffffffff166000809054906101000a900473ffffffffffffffffffffffffffffffffffffffff1673ffffffffffffffffffffffffffffffffffffffff167f8be0079c531659141344cd1fd0a4f28419497f9722a3daafe3b4186f6b6457e060405160405180910390a3806000806101000a81548173ffffffffffffffffffffffffffffffffffffffff021916908373ffffffffffffffffffffffffffffffffffffffff16021790555050565b6040516119be80610ecc833901905600606060405233600360006101000a81548173ffffffffffffffffffffffffffffffffffffffff021916908373ffffffffffffffffffffffffffffffffffffffff16021790555061196a806100546000396000f3006060604052600436106100db576000357c0100000000000000000000000000000000000000000000000000000000900463ffffffff168063095ea7b3146100e057806318160ddd1461013a57806323b872dd1461016357806340c10f19146101dc57806350b565e71461021e578063661884631461026057806370a08231146102ba5780638da5cb5b146103075780639dc29fac1461035c578063a9059cbb1461039e578063b1f60dee146103f8578063d73dd62314610462578063dd62ed3e146104bc578063ee1429f514610528578063f2fde38b14610551575b600080fd5b34156100eb57600080fd5b610120600480803573ffffffffffffffffffffffffffffffffffffffff1690602001909190803590602001909190505061058a565b604051808215151515815260200191505060405180910390f35b341561014557600080fd5b61014d61067c565b6040518082815260200191505060405180910390f35b341561016e57600080fd5b6101c2600480803573ffffffffffffffffffffffffffffffffffffffff1690602001909190803573ffffffffffffffffffffffffffffffffffffffff16906020019091908035906020019091905050610686565b604051808215151515815260200191505060405180910390f35b34156101e757600080fd5b61021c600480803573ffffffffffffffffffffffffffffffffffffffff16906020019091908035906020019091905050610a40565b005b341561022957600080fd5b61025e600480803573ffffffffffffffffffffffffffffffffffffffff16906020019091908035906020019091905050610c02565b005b341561026b57600080fd5b6102a0600480803573ffffffffffffffffffffffffffffffffffffffff16906020019091908035906020019091905050610d55565b604051808215151515815260200191505060405180910390f35b34156102c557600080fd5b6102f1600480803573ffffffffffffffffffffffffffffffffffffffff16906020019091905050610fe6565b6040518082815260200191505060405180910390f35b341561031257600080fd5b61031a61102e565b604051808273ffffffffffffffffffffffffffffffffffffffff1673ffffffffffffffffffffffffffffffffffffffff16815260200191505060405180910390f35b341561036757600080fd5b61039c600480803573ffffffffffffffffffffffffffffffffffffffff16906020019091908035906020019091905050611054565b005b34156103a957600080fd5b6103de600480803573ffffffffffffffffffffffffffffffffffffffff169060200190919080359060200190919050506111fd565b604051808215151515815260200191505060405180910390f35b341561040357600080fd5b610419600480803590602001909190505061141c565b604051808373ffffffffffffffffffffffffffffffffffffffff1673ffffffffffffffffffffffffffffffffffffffff1681526020018281526020019250505060405180910390f35b341561046d57600080fd5b6104a2600480803573ffffffffffffffffffffffffffffffffffffffff1690602001909190803590602001909190505061149f565b604051808215151515815260200191505060405180910390f35b34156104c757600080fd5b610512600480803573ffffffffffffffffffffffffffffffffffffffff1690602001909190803573ffffffffffffffffffffffffffffffffffffffff1690602001909190505061169b565b6040518082815260200191505060405180910390f35b341561053357600080fd5b61053b611722565b6040518082815260200191505060405180910390f35b341561055c57600080fd5b610588600480803573ffffffffffffffffffffffffffffffffffffffff1690602001909190505061172f565b005b600081600260003373ffffffffffffffffffffffffffffffffffffffff1673ffffffffffffffffffffffffffffffffffffffff16815260200190815260200160002060008573ffffffffffffffffffffffffffffffffffffffff1673ffffffffffffffffffffffffffffffffffffffff168152602001908152602001600020819055508273ffffffffffffffffffffffffffffffffffffffff163373ffffffffffffffffffffffffffffffffffffffff167f8c5be1e5ebec7d5bd14f71427d1e84f3dd0314c0f7b2291e5b200ac8c7c3b925846040518082815260200191505060405180910390a36001905092915050565b6000600154905090565b60008073ffffffffffffffffffffffffffffffffffffffff168373ffffffffffffffffffffffffffffffffffffffff16141515156106c357600080fd5b6000808573ffffffffffffffffffffffffffffffffffffffff1673ffffffffffffffffffffffffffffffffffffffff16815260200190815260200160002054821115151561071057600080fd5b600260008573ffffffffffffffffffffffffffffffffffffffff1673ffffffffffffffffffffffffffffffffffffffff16815260200190815260200160002060003373ffffffffffffffffffffffffffffffffffffffff1673ffffffffffffffffffffffffffffffffffffffff16815260200190815260200160002054821115151561079b57600080fd5b6107ec826000808773ffffffffffffffffffffffffffffffffffffffff1673ffffffffffffffffffffffffffffffffffffffff1681526020019081526020016000205461188790919063ffffffff16565b6000808673ffffffffffffffffffffffffffffffffffffffff1673ffffffffffffffffffffffffffffffffffffffff1681526020019081526020016000208190555061087f826000808673ffffffffffffffffffffffffffffffffffffffff1673ffffffffffffffffffffffffffffffffffffffff168152602001908152602001600020546118a090919063ffffffff16565b6000808573ffffffffffffffffffffffffffffffffffffffff1673ffffffffffffffffffffffffffffffffffffffff1681526020019081526020016000208190555061095082600260008773ffffffffffffffffffffffffffffffffffffffff1673ffffffffffffffffffffffffffffffffffffffff16815260200190815260200160002060003373ffffffffffffffffffffffffffffffffffffffff1673ffffffffffffffffffffffffffffffffffffffff1681526020019081526020016000205461188790919063ffffffff16565b600260008673ffffffffffffffffffffffffffffffffffffffff1673ffffffffffffffffffffffffffffffffffffffff16815260200190815260200160002060003373ffffffffffffffffffffffffffffffffffffffff1673ffffffffffffffffffffffffffffffffffffffff168152602001908152602001600020819055508273ffffffffffffffffffffffffffffffffffffffff168473ffffffffffffffffffffffffffffffffffffffff167fddf252ad1be2c89b69c2b068fc378daa952ba7f163c4a11628f55a4df523b3ef846040518082815260200191505060405180910390a3600190509392505050565b600360009054906101000a900473ffffffffffffffffffffffffffffffffffffffff1673ffffffffffffffffffffffffffffffffffffffff163373ffffffffffffffffffffffffffffffffffffffff16141515610a9c57600080fd5b610ab1816001546118a090919063ffffffff16565b600181905550610b08816000808573ffffffffffffffffffffffffffffffffffffffff1673ffffffffffffffffffffffffffffffffffffffff168152602001908152602001600020546118a090919063ffffffff16565b6000808473ffffffffffffffffffffffffffffffffffffffff1673ffffffffffffffffffffffffffffffffffffffff168152602001908152602001600020819055508173ffffffffffffffffffffffffffffffffffffffff167f0f6798a560793a54c3bcfe86a93cde1e73087d944c0ea20544137d4121396885826040518082815260200191505060405180910390a28173ffffffffffffffffffffffffffffffffffffffff16600073ffffffffffffffffffffffffffffffffffffffff167fddf252ad1be2c89b69c2b068fc378daa952ba7f163c4a11628f55a4df523b3ef836040518082815260200191505060405180910390a35050565b600360009054906101000a900473ffffffffffffffffffffffffffffffffffffffff1673ffffffffffffffffffffffffffffffffffffffff163373ffffffffffffffffffffffffffffffffffffffff16141515610c5e57600080fd5b600073ffffffffffffffffffffffffffffffffffffffff168273ffffffffffffffffffffffffffffffffffffffff1614151515610c9a57600080fd5b600081111515610ca957600080fd5b60048054806001018281610cbd91906118be565b9160005260206000209060020201600060408051908101604052808673ffffffffffffffffffffffffffffffffffffffff16815260200185815250909190915060008201518160000160006101000a81548173ffffffffffffffffffffffffffffffffffffffff021916908373ffffffffffffffffffffffffffffffffffffffff160217905550602082015181600101555050505050565b600080600260003373ffffffffffffffffffffffffffffffffffffffff1673ffffffffffffffffffffffffffffffffffffffff16815260200190815260200160002060008573ffffffffffffffffffffffffffffffffffffffff1673ffffffffffffffffffffffffffffffffffffffff16815260200190815260200160002054905080831115610e66576000600260003373ffffffffffffffffffffffffffffffffffffffff1673ffffffffffffffffffffffffffffffffffffffff16815260200190815260200160002060008673ffffffffffffffffffffffffffffffffffffffff1673ffffffffffffffffffffffffffffffffffffffff16815260200190815260200160002081905550610efa565b610e79838261188790919063ffffffff16565b600260003373ffffffffffffffffffffffffffffffffffffffff1673ffffffffffffffffffffffffffffffffffffffff16815260200190815260200160002060008673ffffffffffffffffffffffffffffffffffffffff1673ffffffffffffffffffffffffffffffffffffffff168152602001908152602001600020819055505b8373ffffffffffffffffffffffffffffffffffffffff163373ffffffffffffffffffffffffffffffffffffffff167f8c5be1e5ebec7d5bd14f71427d1e84f3dd0314c0f7b2291e5b200ac8c7c3b925600260003373ffffffffffffffffffffffffffffffffffffffff1673ffffffffffffffffffffffffffffffffffffffff16815260200190815260200160002060008873ffffffffffffffffffffffffffffffffffffffff1673ffffffffffffffffffffffffffffffffffffffff168152602001908152602001600020546040518082815260200191505060405180910390a3600191505092915050565b60008060008373ffffffffffffffffffffffffffffffffffffffff1673ffffffffffffffffffffffffffffffffffffffff168152602001908152602001600020549050919050565b600360009054906101000a900473ffffffffffffffffffffffffffffffffffffffff1681565b600360009054906101000a900473ffffffffffffffffffffffffffffffffffffffff1673ffffffffffffffffffffffffffffffffffffffff163373ffffffffffffffffffffffffffffffffffffffff161415156110b057600080fd5b6000808373ffffffffffffffffffffffffffffffffffffffff1673ffffffffffffffffffffffffffffffffffffffff1681526020019081526020016000205481111515156110fd57600080fd5b6111128160015461188790919063ffffffff16565b600181905550611169816000808573ffffffffffffffffffffffffffffffffffffffff1673ffffffffffffffffffffffffffffffffffffffff1681526020019081526020016000205461188790919063ffffffff16565b6000808473ffffffffffffffffffffffffffffffffffffffff1673ffffffffffffffffffffffffffffffffffffffff168152602001908152602001600020819055508173ffffffffffffffffffffffffffffffffffffffff167fcc16f5dbb4873280815c1ee09dbd06736cffcc184412cf7a71a0fdb75d397ca5826040518082815260200191505060405180910390a25050565b60008073ffffffffffffffffffffffffffffffffffffffff168373ffffffffffffffffffffffffffffffffffffffff161415151561123a57600080fd5b6000803373ffffffffffffffffffffffffffffffffffffffff1673ffffffffffffffffffffffffffffffffffffffff16815260200190815260200160002054821115151561128757600080fd5b6112d8826000803373ffffffffffffffffffffffffffffffffffffffff1673ffffffffffffffffffffffffffffffffffffffff1681526020019081526020016000205461188790919063ffffffff16565b6000803373ffffffffffffffffffffffffffffffffffffffff1673ffffffffffffffffffffffffffffffffffffffff1681526020019081526020016000208190555061136b826000808673ffffffffffffffffffffffffffffffffffffffff1673ffffffffffffffffffffffffffffffffffffffff168152602001908152602001600020546118a090919063ffffffff16565b6000808573ffffffffffffffffffffffffffffffffffffffff1673ffffffffffffffffffffffffffffffffffffffff168152602001908152602001600020819055508273ffffffffffffffffffffffffffffffffffffffff163373ffffffffffffffffffffffffffffffffffffffff167fddf252ad1be2c89b69c2b068fc378daa952ba7f163c4a11628f55a4df523b3ef846040518082815260200191505060405180910390a36001905092915050565b600080826004805490508110151561143357600080fd5b60048481548110151561144257fe5b906000526020600020906002020160000160009054906101000a900473ffffffffffffffffffffffffffffffffffffffff1660048581548110151561148357fe5b9060005260206000209060020201600101549250925050915091565b600061153082600260003373ffffffffffffffffffffffffffffffffffffffff1673ffffffffffffffffffffffffffffffffffffffff16815260200190815260200160002060008673ffffffffffffffffffffffffffffffffffffffff1673ffffffffffffffffffffffffffffffffffffffff168152602001908152602001600020546118a090919063ffffffff16565b600260003373ffffffffffffffffffffffffffffffffffffffff1673ffffffffffffffffffffffffffffffffffffffff16815260200190815260200160002060008573ffffffffffffffffffffffffffffffffffffffff1673ffffffffffffffffffffffffffffffffffffffff168152602001908152602001600020819055508273ffffffffffffffffffffffffffffffffffffffff163373ffffffffffffffffffffffffffffffffffffffff167f8c5be1e5ebec7d5bd14f71427d1e84f3dd0314c0f7b2291e5b200ac8c7c3b925600260003373ffffffffffffffffffffffffffffffffffffffff1673ffffffffffffffffffffffffffffffffffffffff16815260200190815260200160002060008773ffffffffffffffffffffffffffffffffffffffff1673ffffffffffffffffffffffffffffffffffffffff168152602001908152602001600020546040518082815260200191505060405180910390a36001905092915050565b6000600260008473ffffffffffffffffffffffffffffffffffffffff1673ffffffffffffffffffffffffffffffffffffffff16815260200190815260200160002060008373ffffffffffffffffffffffffffffffffffffffff1673ffffffffffffffffffffffffffffffffffffffff16815260200190815260200160002054905092915050565b6000600480549050905090565b600360009054906101000a900473ffffffffffffffffffffffffffffffffffffffff1673ffffffffffffffffffffffffffffffffffffffff163373ffffffffffffffffffffffffffffffffffffffff1614151561178b57600080fd5b600073ffffffffffffffffffffffffffffffffffffffff168173ffffffffffffffffffffffffffffffffffffffff16141515156117c757600080fd5b8073ffffffffffffffffffffffffffffffffffffffff16600360009054906101000a900473ffffffffffffffffffffffffffffffffffffffff1673ffffffffffffffffffffffffffffffffffffffff167f8be0079c531659141344cd1fd0a4f28419497f9722a3daafe3b4186f6b6457e060405160405180910390a380600360006101000a81548173ffffffffffffffffffffffffffffffffffffffff021916908373ffffffffffffffffffffffffffffffffffffffff16021790555050565b600082821115151561189557fe5b818303905092915050565b60008082840190508381101515156118b457fe5b8091505092915050565b8154818355818115116118eb576002028160020283600052602060002091820191016118ea91906118f0565b5b505050565b61193b91905b8082111561193757600080820160006101000a81549073ffffffffffffffffffffffffffffffffffffffff02191690556001820160009055506002016118f6565b5090565b905600a165627a7a72305820c821e5063a4b805b31128155fc9ba88686be91dfd8e2c54b28c4b67ae42be4430029a165627a7a72305820f35e17ad193c03c4e38ee315a33e3b7f10599e7be9b7c6d312d3e25a65c670e10029",
  "source": "pragma solidity ^0.4.17;\n\nimport './CraftableToken.sol';\nimport 'zeppelin-solidity/contracts/ownership/Ownable.sol';\n\n\n/**\n * @title Crafting token game\n * @dev The game holds multiple CraftableTokens (craftables), which can be\n * crafted by players. Crafting advanced tokens (with ingredients) requires\n * the player to hold the required amount of said ingredient, which will be\n * used up in the crafting process. New craftables and ingredients can be\n * added by the game owner at any point in time.\n */\ncontract Crafty is Ownable {\n  // Craftable storage. Each craftable is referenced using a unique string.\n  // An enum could be used for this, but Solidity doesn't yet support having\n  // mappings with enum keys, and enums are not exposed to JS, so strings are\n  // far easier to work with.\n  mapping (string => CraftableToken) private craftables;\n\n  // Player API\n\n  /**\n   * @dev Returns one of the game's craftables.\n   * @param name The craftable's name.\n   */\n  function getCraftable(string name) public view returns (CraftableToken) {\n    require(craftables[name] != address(0));\n\n    return craftables[name];\n  }\n\n  /**\n   * @dev Crafts a craftable. All of the craftable's ingredients must be\n   * present in the player's inventory in the required amounts, and they\n   * will be consumed (destroyed) by the crafting process.\n   * @param name The name of the craftable to craft.\n   */\n  function craft(string name) public {\n    CraftableToken result = getCraftable(name);\n    address player = msg.sender;\n\n    // Check the required craftables are present in the player's inventory,\n    // and then consume those items. All burn calls will be reverted if the\n    // player is missing any ingredient.\n    uint256 totalSteps = result.getTotalRecipeSteps();\n    for (uint i = 0; i < totalSteps; ++i) {\n      CraftableToken ingredient;\n      uint256 amountNeeded;\n      (ingredient, amountNeeded) = result.getRecipeStep(i);\n\n      require(ingredient.balanceOf(player) >= amountNeeded);\n      ingredient.burn(player, amountNeeded);\n    }\n\n    // Add the resulting item\n    result.mint(player, 1);\n  }\n\n  /**\n   * @dev Returns the amount of craftables or a certain type owned by the\n   * player.\n   * @param name The name of the craftable to query.\n   */\n  function getAmount(string name) public view returns (uint256) {\n    return getCraftable(name).balanceOf(msg.sender);\n  }\n\n  // Owner API\n\n  /**\n   * @dev Adds a new craftable to the game by deploying a new CraftableToken.\n   * @param name The name of the new craftable, which will be later used to\n   * interact with it. Once a name has been taken, it cannot be reused.\n   */\n  function addCraftable(string name) public onlyOwner {\n    require(craftables[name] == address(0));\n\n    craftables[name] = new CraftableToken();\n  }\n\n  /**\n   * @dev Adds an ingredient requirement to a craftable. After calling this\n   * function, crafting the craftable will require consuming (destroying) the\n   * new ingredient.\n   * @param resultName The name of the craftable to add the ingredient to.\n   * @param ingredientName The name of the ingredient craftable.\n   * @param amountNeeded The number of ingredient craftables to consume during\n   * the result's craftable crafting.\n   */\n  function addIngredient(string resultName, string ingredientName, uint256 amountNeeded) public onlyOwner {\n    require(keccak256(resultName) != keccak256(ingredientName));\n\n    CraftableToken result = getCraftable(resultName);\n    CraftableToken ingredient = getCraftable(ingredientName);\n\n    result.addRecipeStep(ingredient, amountNeeded);\n  }\n}\n",
  "sourcePath": "/home/travis/build/nventuro/crafty/contracts/Crafty.sol",
  "compiler": {
    "name": "solc",
    "version": "0.4.19+commit.c4cbbb05.Emscripten.clang"
  },
  "schemaVersion": "1.0.1",
  "updatedAt": "2018-04-13T13:52:10.153Z"
}